{
  "address": "0xB2d8a2ce4A3a5B63CE60b0AE7593dD9A30eeFe77",
  "abi": [
    {
      "inputs": [
        {
          "internalType": "address",
          "name": "ensAddress",
          "type": "address"
        },
        {
          "internalType": "address",
          "name": "resolverAddress",
          "type": "address"
        },
        {
          "internalType": "bytes32",
          "name": "_rootNode",
          "type": "bytes32"
        }
      ],
      "stateMutability": "nonpayable",
      "type": "constructor"
    },
    {
      "anonymous": false,
      "inputs": [
        {
          "indexed": true,
          "internalType": "address",
          "name": "previousOwner",
          "type": "address"
        },
        {
          "indexed": true,
          "internalType": "address",
          "name": "newOwner",
          "type": "address"
        }
      ],
      "name": "OwnershipTransferred",
      "type": "event"
    },
    {
      "inputs": [
        {
          "internalType": "string",
          "name": "subdomain",
          "type": "string"
        },
        {
          "internalType": "address",
          "name": "subdomainOwner",
          "type": "address"
        }
      ],
      "name": "createSubdomain",
      "outputs": [],
      "stateMutability": "nonpayable",
      "type": "function"
    },
    {
      "inputs": [],
      "name": "owner",
      "outputs": [
        {
          "internalType": "address",
          "name": "",
          "type": "address"
        }
      ],
      "stateMutability": "view",
      "type": "function"
    },
    {
      "inputs": [],
      "name": "renounceOwnership",
      "outputs": [],
      "stateMutability": "nonpayable",
      "type": "function"
    },
    {
      "inputs": [],
      "name": "rootNode",
      "outputs": [
        {
          "internalType": "bytes32",
          "name": "",
          "type": "bytes32"
        }
      ],
      "stateMutability": "view",
      "type": "function"
    },
    {
      "inputs": [
        {
          "internalType": "address",
          "name": "newOwner",
          "type": "address"
        }
      ],
      "name": "transferOwnership",
      "outputs": [],
      "stateMutability": "nonpayable",
      "type": "function"
    }
  ],
  "transactionHash": "0x335c174fef6dd564dd22e625f06caae5cb702e9aa23f7fe3a8c73f4ad877ec0c",
  "args": [
    "0xc2564e41B7F5Cb66d2d99466450CfebcE9e8228f",
    "0x231b0Ee14048e9dCcD1d247744d114a4EB5E8E63",
    "0x5931b7d48a783fa8f651c47edcb8bfcd9a135450d59846f9cc2c673a59e2cb80"
  ],
  "numDeployments": 1,
  "solcInputHash": "c1601fbb67f54943900e64269e7f58e6",
  "bytecode": "0x608060405234801561001057600080fd5b5060405161069038038061069083398101604081905261002f916100dc565b61003833610070565b600180546001600160a01b039485166001600160a01b0319918216179091556002805493909416921691909117909155600355610118565b600080546001600160a01b038381166001600160a01b0319831681178455604051919092169283917f8be0079c531659141344cd1fd0a4f28419497f9722a3daafe3b4186f6b6457e09190a35050565b80516001600160a01b03811681146100d757600080fd5b919050565b6000806000606084860312156100f157600080fd5b6100fa846100c0565b9250610108602085016100c0565b9150604084015190509250925092565b610569806101276000396000f3fe608060405234801561001057600080fd5b50600436106100575760003560e01c806310a2cbe21461005c578063715018a6146100715780638da5cb5b14610079578063f2fde38b14610099578063faff50a8146100ac575b600080fd5b61006f61006a366004610407565b6100c3565b005b61006f610299565b6000546040516001600160a01b0390911681526020015b60405180910390f35b61006f6100a73660046104c9565b6102ad565b6100b560035481565b604051908152602001610090565b6100cb61032b565b6000826040516020016100de91906104eb565b604051602081830303815290604052805190602001209050600060035482604051602001610116929190918252602082015260400190565b60408051808303601f190181529082905280516020909101206001546003546306ab592360e01b84526004840152602483018590523060448401529092506001600160a01b0316906306ab5923906064016020604051808303816000875af1158015610186573d6000803e3d6000fd5b505050506040513d601f19601f820116820180604052508101906101aa919061051a565b5060025460405162d5fa2b60e81b8152600481018390526001600160a01b0385811660248301529091169063d5fa2b0090604401600060405180830381600087803b1580156101f857600080fd5b505af115801561020c573d6000803e3d6000fd5b50506001546003546040516306ab592360e01b81526004810191909152602481018690526001600160a01b03878116604483015290911692506306ab592391506064016020604051808303816000875af115801561026e573d6000803e3d6000fd5b505050506040513d601f19601f82011682018060405250810190610292919061051a565b5050505050565b6102a161032b565b6102ab6000610385565b565b6102b561032b565b6001600160a01b03811661031f5760405162461bcd60e51b815260206004820152602660248201527f4f776e61626c653a206e6577206f776e657220697320746865207a65726f206160448201526564647265737360d01b60648201526084015b60405180910390fd5b61032881610385565b50565b6000546001600160a01b031633146102ab5760405162461bcd60e51b815260206004820181905260248201527f4f776e61626c653a2063616c6c6572206973206e6f7420746865206f776e65726044820152606401610316565b600080546001600160a01b038381166001600160a01b0319831681178455604051919092169283917f8be0079c531659141344cd1fd0a4f28419497f9722a3daafe3b4186f6b6457e09190a35050565b634e487b7160e01b600052604160045260246000fd5b80356001600160a01b038116811461040257600080fd5b919050565b6000806040838503121561041a57600080fd5b823567ffffffffffffffff8082111561043257600080fd5b818501915085601f83011261044657600080fd5b813581811115610458576104586103d5565b604051601f8201601f19908116603f01168101908382118183101715610480576104806103d5565b8160405282815288602084870101111561049957600080fd5b8260208601602083013760006020848301015280965050505050506104c0602084016103eb565b90509250929050565b6000602082840312156104db57600080fd5b6104e4826103eb565b9392505050565b6000825160005b8181101561050c57602081860181015185830152016104f2565b506000920191825250919050565b60006020828403121561052c57600080fd5b505191905056fea264697066735822122052bfc5e119aad9e4aecac4f16cb1e6afd3021ac905f78ad53f2f7a523779a7e164736f6c63430008110033",
  "devdoc": {
    "kind": "dev",
    "methods": {
      "owner()": {
        "details": "Returns the address of the current owner."
      },
      "renounceOwnership()": {
        "details": "Leaves the contract without owner. It will not be possible to call `onlyOwner` functions. Can only be called by the current owner. NOTE: Renouncing ownership will leave the contract without an owner, thereby disabling any functionality that is only available to the owner."
      },
      "transferOwnership(address)": {
        "details": "Transfers ownership of the contract to a new account (`newOwner`). Can only be called by the current owner."
      }
    },
    "version": 1
  },
  "userdoc": {
    "kind": "user",
    "methods": {},
    "version": 1
  },
  "storageLayout": {
    "storage": [
      {
        "astId": 7,
        "contract": "contracts/ENSSubdomainManager.sol:ENSSubdomainManager",
        "label": "_owner",
        "offset": 0,
        "slot": "0",
        "type": "t_address"
      },
      {
        "astId": 1363,
        "contract": "contracts/ENSSubdomainManager.sol:ENSSubdomainManager",
        "label": "ens",
        "offset": 0,
        "slot": "1",
        "type": "t_contract(ENS)1350"
      },
      {
        "astId": 1366,
        "contract": "contracts/ENSSubdomainManager.sol:ENSSubdomainManager",
        "label": "resolver",
        "offset": 0,
        "slot": "2",
        "type": "t_contract(Resolver)1358"
      },
      {
        "astId": 1368,
        "contract": "contracts/ENSSubdomainManager.sol:ENSSubdomainManager",
        "label": "rootNode",
        "offset": 0,
        "slot": "3",
        "type": "t_bytes32"
      }
    ],
    "types": {
      "t_address": {
        "encoding": "inplace",
        "label": "address",
        "numberOfBytes": "20"
      },
      "t_bytes32": {
        "encoding": "inplace",
        "label": "bytes32",
        "numberOfBytes": "32"
      },
      "t_contract(ENS)1350": {
        "encoding": "inplace",
        "label": "contract ENS",
        "numberOfBytes": "20"
      },
      "t_contract(Resolver)1358": {
        "encoding": "inplace",
        "label": "contract Resolver",
        "numberOfBytes": "20"
      }
    }
  }
}